{
  "contractName": "StakingToken",
  "abi": [
    {
      "inputs": [
        {
          "internalType": "uint256",
          "name": "_stakeTime",
          "type": "uint256"
        },
        {
          "internalType": "uint256",
          "name": "_tokenToWeiRate",
          "type": "uint256"
        }
      ],
      "stateMutability": "payable",
      "type": "constructor"
    },
    {
      "anonymous": false,
      "inputs": [
        {
          "indexed": true,
          "internalType": "address",
          "name": "owner",
          "type": "address"
        },
        {
          "indexed": true,
          "internalType": "address",
          "name": "spender",
          "type": "address"
        },
        {
          "indexed": false,
          "internalType": "uint256",
          "name": "value",
          "type": "uint256"
        }
      ],
      "name": "Approval",
      "type": "event"
    },
    {
      "anonymous": false,
      "inputs": [
        {
          "indexed": true,
          "internalType": "address",
          "name": "_claimer",
          "type": "address"
        },
        {
          "indexed": true,
          "internalType": "uint256",
          "name": "_timestamp",
          "type": "uint256"
        },
        {
          "indexed": false,
          "internalType": "uint256",
          "name": "_amount",
          "type": "uint256"
        }
      ],
      "name": "Claimed",
      "type": "event"
    },
    {
      "anonymous": false,
      "inputs": [
        {
          "indexed": true,
          "internalType": "address",
          "name": "_staker",
          "type": "address"
        },
        {
          "indexed": true,
          "internalType": "uint256",
          "name": "_timestamp",
          "type": "uint256"
        },
        {
          "indexed": false,
          "internalType": "uint256",
          "name": "_amount",
          "type": "uint256"
        }
      ],
      "name": "Staked",
      "type": "event"
    },
    {
      "anonymous": false,
      "inputs": [
        {
          "indexed": true,
          "internalType": "address",
          "name": "purchaser",
          "type": "address"
        },
        {
          "indexed": false,
          "internalType": "uint256",
          "name": "amount",
          "type": "uint256"
        }
      ],
      "name": "TokenPurchase",
      "type": "event"
    },
    {
      "anonymous": false,
      "inputs": [
        {
          "indexed": true,
          "internalType": "address",
          "name": "from",
          "type": "address"
        },
        {
          "indexed": true,
          "internalType": "address",
          "name": "to",
          "type": "address"
        },
        {
          "indexed": false,
          "internalType": "uint256",
          "name": "value",
          "type": "uint256"
        }
      ],
      "name": "Transfer",
      "type": "event"
    },
    {
      "inputs": [
        {
          "internalType": "address",
          "name": "owner",
          "type": "address"
        },
        {
          "internalType": "address",
          "name": "spender",
          "type": "address"
        }
      ],
      "name": "allowance",
      "outputs": [
        {
          "internalType": "uint256",
          "name": "",
          "type": "uint256"
        }
      ],
      "stateMutability": "view",
      "type": "function"
    },
    {
      "inputs": [
        {
          "internalType": "address",
          "name": "spender",
          "type": "address"
        },
        {
          "internalType": "uint256",
          "name": "amount",
          "type": "uint256"
        }
      ],
      "name": "approve",
      "outputs": [
        {
          "internalType": "bool",
          "name": "",
          "type": "bool"
        }
      ],
      "stateMutability": "nonpayable",
      "type": "function"
    },
    {
      "inputs": [
        {
          "internalType": "address",
          "name": "account",
          "type": "address"
        }
      ],
      "name": "balanceOf",
      "outputs": [
        {
          "internalType": "uint256",
          "name": "",
          "type": "uint256"
        }
      ],
      "stateMutability": "view",
      "type": "function"
    },
    {
      "inputs": [],
      "name": "decimals",
      "outputs": [
        {
          "internalType": "uint8",
          "name": "",
          "type": "uint8"
        }
      ],
      "stateMutability": "view",
      "type": "function"
    },
    {
      "inputs": [
        {
          "internalType": "address",
          "name": "spender",
          "type": "address"
        },
        {
          "internalType": "uint256",
          "name": "subtractedValue",
          "type": "uint256"
        }
      ],
      "name": "decreaseAllowance",
      "outputs": [
        {
          "internalType": "bool",
          "name": "",
          "type": "bool"
        }
      ],
      "stateMutability": "nonpayable",
      "type": "function"
    },
    {
      "inputs": [
        {
          "internalType": "address",
          "name": "spender",
          "type": "address"
        },
        {
          "internalType": "uint256",
          "name": "addedValue",
          "type": "uint256"
        }
      ],
      "name": "increaseAllowance",
      "outputs": [
        {
          "internalType": "bool",
          "name": "",
          "type": "bool"
        }
      ],
      "stateMutability": "nonpayable",
      "type": "function"
    },
    {
      "inputs": [],
      "name": "minStakePeriod",
      "outputs": [
        {
          "internalType": "uint256",
          "name": "",
          "type": "uint256"
        }
      ],
      "stateMutability": "view",
      "type": "function"
    },
    {
      "inputs": [],
      "name": "name",
      "outputs": [
        {
          "internalType": "string",
          "name": "",
          "type": "string"
        }
      ],
      "stateMutability": "view",
      "type": "function"
    },
    {
      "inputs": [],
      "name": "owner",
      "outputs": [
        {
          "internalType": "address",
          "name": "",
          "type": "address"
        }
      ],
      "stateMutability": "view",
      "type": "function"
    },
    {
      "inputs": [],
      "name": "rewardPct",
      "outputs": [
        {
          "internalType": "uint256",
          "name": "",
          "type": "uint256"
        }
      ],
      "stateMutability": "view",
      "type": "function"
    },
    {
      "inputs": [],
      "name": "symbol",
      "outputs": [
        {
          "internalType": "string",
          "name": "",
          "type": "string"
        }
      ],
      "stateMutability": "view",
      "type": "function"
    },
    {
      "inputs": [],
      "name": "tokenToWeiRate",
      "outputs": [
        {
          "internalType": "uint256",
          "name": "",
          "type": "uint256"
        }
      ],
      "stateMutability": "view",
      "type": "function"
    },
    {
      "inputs": [],
      "name": "totalSupply",
      "outputs": [
        {
          "internalType": "uint256",
          "name": "",
          "type": "uint256"
        }
      ],
      "stateMutability": "view",
      "type": "function"
    },
    {
      "inputs": [
        {
          "internalType": "address",
          "name": "to",
          "type": "address"
        },
        {
          "internalType": "uint256",
          "name": "amount",
          "type": "uint256"
        }
      ],
      "name": "transfer",
      "outputs": [
        {
          "internalType": "bool",
          "name": "",
          "type": "bool"
        }
      ],
      "stateMutability": "nonpayable",
      "type": "function"
    },
    {
      "inputs": [
        {
          "internalType": "address",
          "name": "from",
          "type": "address"
        },
        {
          "internalType": "address",
          "name": "to",
          "type": "address"
        },
        {
          "internalType": "uint256",
          "name": "amount",
          "type": "uint256"
        }
      ],
      "name": "transferFrom",
      "outputs": [
        {
          "internalType": "bool",
          "name": "",
          "type": "bool"
        }
      ],
      "stateMutability": "nonpayable",
      "type": "function"
    },
    {
      "stateMutability": "payable",
      "type": "receive"
    },
    {
      "inputs": [
        {
          "internalType": "uint256",
          "name": "tokensBought",
          "type": "uint256"
        }
      ],
      "name": "buyToken",
      "outputs": [],
      "stateMutability": "payable",
      "type": "function"
    },
    {
      "inputs": [
        {
          "internalType": "uint256",
          "name": "_amtToStake",
          "type": "uint256"
        }
      ],
      "name": "stakeToken",
      "outputs": [
        {
          "internalType": "bool",
          "name": "",
          "type": "bool"
        },
        {
          "internalType": "uint256",
          "name": "rewardTime",
          "type": "uint256"
        }
      ],
      "stateMutability": "nonpayable",
      "type": "function"
    },
    {
      "inputs": [],
      "name": "claimReward",
      "outputs": [
        {
          "internalType": "bool",
          "name": "",
          "type": "bool"
        }
      ],
      "stateMutability": "nonpayable",
      "type": "function"
    },
    {
      "inputs": [
        {
          "internalType": "uint256",
          "name": "_tokenToWeiRate",
          "type": "uint256"
        }
      ],
      "name": "modifyTokenBuyPrice",
      "outputs": [
        {
          "internalType": "bool",
          "name": "",
          "type": "bool"
        }
      ],
      "stateMutability": "nonpayable",
      "type": "function"
    }
  ],
  "bytecode": "0x608060405262093a80600655600160085560405162002bfc38038062002bfc8339818101604052810190620000359190620003fe565b6040518060400160405280600b81526020017f54616b696e67546f6b656e0000000000000000000000000000000000000000008152506040518060400160405280600381526020017f53544b00000000000000000000000000000000000000000000000000000000008152508160039080519060200190620000b992919062000337565b508060049080519060200190620000d292919062000337565b50505033600560006101000a81548173ffffffffffffffffffffffffffffffffffffffff021916908373ffffffffffffffffffffffffffffffffffffffff160217905550816006819055508060078190555062000184600560009054906101000a900473ffffffffffffffffffffffffffffffffffffffff166200015b6200018d60201b60201c565b600a6200016991906200057f565b6103e8620001789190620006bc565b6200019660201b60201c565b50505062000818565b60006012905090565b6000620001aa8383620001b460201b60201c565b6001905092915050565b600073ffffffffffffffffffffffffffffffffffffffff168273ffffffffffffffffffffffffffffffffffffffff16141562000227576040517f08c379a00000000000000000000000000000000000000000000000000000000081526004016200021e9062000477565b60405180910390fd5b6200023b600083836200032d60201b60201c565b80600260008282546200024f9190620004c7565b92505081905550806000808473ffffffffffffffffffffffffffffffffffffffff1673ffffffffffffffffffffffffffffffffffffffff1681526020019081526020016000206000828254620002a69190620004c7565b925050819055508173ffffffffffffffffffffffffffffffffffffffff16600073ffffffffffffffffffffffffffffffffffffffff167fddf252ad1be2c89b69c2b068fc378daa952ba7f163c4a11628f55a4df523b3ef836040516200030d919062000499565b60405180910390a362000329600083836200033260201b60201c565b5050565b505050565b505050565b828054620003459062000734565b90600052602060002090601f016020900481019282620003695760008555620003b5565b82601f106200038457805160ff1916838001178555620003b5565b82800160010185558215620003b5579182015b82811115620003b457825182559160200191906001019062000397565b5b509050620003c49190620003c8565b5090565b5b80821115620003e3576000816000905550600101620003c9565b5090565b600081519050620003f881620007fe565b92915050565b600080604083850312156200041257600080fd5b60006200042285828601620003e7565b92505060206200043585828601620003e7565b9150509250929050565b60006200044e601f83620004b6565b91506200045b82620007d5565b602082019050919050565b62000471816200071d565b82525050565b6000602082019050818103600083015262000492816200043f565b9050919050565b6000602082019050620004b0600083018462000466565b92915050565b600082825260208201905092915050565b6000620004d4826200071d565b9150620004e1836200071d565b9250827fffffffffffffffffffffffffffffffffffffffffffffffffffffffffffffffff038211156200051957620005186200076a565b5b828201905092915050565b6000808291508390505b600185111562000576578086048111156200054e576200054d6200076a565b5b60018516156200055e5780820291505b80810290506200056e85620007c8565b94506200052e565b94509492505050565b60006200058c826200071d565b9150620005998362000727565b9250620005c87fffffffffffffffffffffffffffffffffffffffffffffffffffffffffffffffff8484620005d0565b905092915050565b600082620005e25760019050620006b5565b81620005f25760009050620006b5565b81600181146200060b576002811462000616576200064c565b6001915050620006b5565b60ff8411156200062b576200062a6200076a565b5b8360020a9150848211156200064557620006446200076a565b5b50620006b5565b5060208310610133831016604e8410600b8410161715620006865782820a90508381111562000680576200067f6200076a565b5b620006b5565b62000695848484600162000524565b92509050818404811115620006af57620006ae6200076a565b5b81810290505b9392505050565b6000620006c9826200071d565b9150620006d6836200071d565b9250817fffffffffffffffffffffffffffffffffffffffffffffffffffffffffffffffff04831182151516156200071257620007116200076a565b5b828202905092915050565b6000819050919050565b600060ff82169050919050565b600060028204905060018216806200074d57607f821691505b6020821081141562000764576200076362000799565b5b50919050565b7f4e487b7100000000000000000000000000000000000000000000000000000000600052601160045260246000fd5b7f4e487b7100000000000000000000000000000000000000000000000000000000600052602260045260246000fd5b60008160011c9050919050565b7f45524332303a206d696e7420746f20746865207a65726f206164647265737300600082015250565b62000809816200071d565b81146200081557600080fd5b50565b6123d480620008286000396000f3fe6080604052600436106101185760003560e01c80638da5cb5b116100a0578063a9059cbb11610064578063a9059cbb146103f4578063b88a802f14610431578063cda6b8471461045c578063d84f2bc61461049a578063dd62ed3e146104c557610138565b80638da5cb5b1461030b57806395d89b41146103365780639bd3f3bc14610361578063a457c2d71461038c578063a60fa896146103c957610138565b80632d296bf1116100e75780632d296bf11461020d578063313ce56714610229578063395093511461025457806370a0823114610291578063834dc984146102ce57610138565b806306fdde031461013d578063095ea7b31461016857806318160ddd146101a557806323b872dd146101d057610138565b3661013857600061012834610502565b9050610134338261055e565b5050005b600080fd5b34801561014957600080fd5b50610152610574565b60405161015f9190611aa6565b60405180910390f35b34801561017457600080fd5b5061018f600480360381019061018a9190611760565b610606565b60405161019c9190611a62565b60405180910390f35b3480156101b157600080fd5b506101ba610629565b6040516101c79190611ca8565b60405180910390f35b3480156101dc57600080fd5b506101f760048036038101906101f29190611711565b610633565b6040516102049190611a62565b60405180910390f35b6102276004803603810190610222919061179c565b610662565b005b34801561023557600080fd5b5061023e610775565b60405161024b9190611cc3565b60405180910390f35b34801561026057600080fd5b5061027b60048036038101906102769190611760565b61077e565b6040516102889190611a62565b60405180910390f35b34801561029d57600080fd5b506102b860048036038101906102b391906116ac565b610828565b6040516102c59190611ca8565b60405180910390f35b3480156102da57600080fd5b506102f560048036038101906102f0919061179c565b610870565b6040516103029190611a62565b60405180910390f35b34801561031757600080fd5b50610320610912565b60405161032d9190611a47565b60405180910390f35b34801561034257600080fd5b5061034b610938565b6040516103589190611aa6565b60405180910390f35b34801561036d57600080fd5b506103766109ca565b6040516103839190611ca8565b60405180910390f35b34801561039857600080fd5b506103b360048036038101906103ae9190611760565b6109d0565b6040516103c09190611a62565b60405180910390f35b3480156103d557600080fd5b506103de610aba565b6040516103eb9190611ca8565b60405180910390f35b34801561040057600080fd5b5061041b60048036038101906104169190611760565b610ac0565b6040516104289190611a62565b60405180910390f35b34801561043d57600080fd5b50610446610ae3565b6040516104539190611a62565b60405180910390f35b34801561046857600080fd5b50610483600480360381019061047e919061179c565b610bda565b604051610491929190611a7d565b60405180910390f35b3480156104a657600080fd5b506104af610d72565b6040516104bc9190611ca8565b60405180910390f35b3480156104d157600080fd5b506104ec60048036038101906104e791906116d5565b610d78565b6040516104f99190611ca8565b60405180910390f35b6000600754821015610549576040517f08c379a000000000000000000000000000000000000000000000000000000000815260040161054090611c28565b60405180910390fd5b600754826105579190611cfa565b9050919050565b600061056a8383610dff565b6001905092915050565b60606003805461058390611e97565b80601f01602080910402602001604051908101604052809291908181526020018280546105af90611e97565b80156105fc5780601f106105d1576101008083540402835291602001916105fc565b820191906000526020600020905b8154815290600101906020018083116105df57829003601f168201915b5050505050905090565b600080610611610f5f565b905061061e818585610f67565b600191505092915050565b6000600254905090565b60008061063e610f5f565b905061064b858285611132565b6106568585856111be565b60019150509392505050565b600034116106a5576040517f08c379a000000000000000000000000000000000000000000000000000000000815260040161069c90611b08565b60405180910390fd5b600560009054906101000a900473ffffffffffffffffffffffffffffffffffffffff1673ffffffffffffffffffffffffffffffffffffffff166108fc349081150290604051600060405180830381858888f1935050505015801561070d573d6000803e3d6000fd5b5061071734610502565b9050610723338261055e565b503373ffffffffffffffffffffffffffffffffffffffff167ff4b351c7293f3c20fc9912c61adbe9823a6de3162bde18c98eb6feeae232f8618260405161076a9190611ca8565b60405180910390a250565b60006012905090565b600080610789610f5f565b905061081d818585600160008673ffffffffffffffffffffffffffffffffffffffff1673ffffffffffffffffffffffffffffffffffffffff16815260200190815260200160002060008973ffffffffffffffffffffffffffffffffffffffff1673ffffffffffffffffffffffffffffffffffffffff168152602001908152602001600020546108189190611cfa565b610f67565b600191505092915050565b60008060008373ffffffffffffffffffffffffffffffffffffffff1673ffffffffffffffffffffffffffffffffffffffff168152602001908152602001600020549050919050565b6000600560009054906101000a900473ffffffffffffffffffffffffffffffffffffffff1673ffffffffffffffffffffffffffffffffffffffff163373ffffffffffffffffffffffffffffffffffffffff1614610902576040517f08c379a00000000000000000000000000000000000000000000000000000000081526004016108f990611c68565b60405180910390fd5b8160078190555060019050919050565b600560009054906101000a900473ffffffffffffffffffffffffffffffffffffffff1681565b60606004805461094790611e97565b80601f016020809104026020016040519081016040528092919081815260200182805461097390611e97565b80156109c05780601f10610995576101008083540402835291602001916109c0565b820191906000526020600020905b8154815290600101906020018083116109a357829003601f168201915b5050505050905090565b60085481565b6000806109db610f5f565b90506000600160008373ffffffffffffffffffffffffffffffffffffffff1673ffffffffffffffffffffffffffffffffffffffff16815260200190815260200160002060008673ffffffffffffffffffffffffffffffffffffffff1673ffffffffffffffffffffffffffffffffffffffff16815260200190815260200160002054905083811015610aa1576040517f08c379a0000000000000000000000000000000000000000000000000000000008152600401610a9890611c48565b60405180910390fd5b610aae8286868403610f67565b60019250505092915050565b60075481565b600080610acb610f5f565b9050610ad88185856111be565b600191505092915050565b600033600a60008273ffffffffffffffffffffffffffffffffffffffff1673ffffffffffffffffffffffffffffffffffffffff16815260200190815260200160002054421015610b68576040517f08c379a0000000000000000000000000000000000000000000000000000000008152600401610b5f90611ba8565b60405180910390fd5b60065442610b769190611cfa565b600a60003373ffffffffffffffffffffffffffffffffffffffff1673ffffffffffffffffffffffffffffffffffffffff168152602001908152602001600020819055506000610bc43361143f565b9050610bd0338261055e565b5060019250505090565b6000803383600960008373ffffffffffffffffffffffffffffffffffffffff1673ffffffffffffffffffffffffffffffffffffffff16815260200190815260200160002054610c2883610828565b610c329190611ddb565b811115610c74576040517f08c379a0000000000000000000000000000000000000000000000000000000008152600401610c6b90611b28565b60405180910390fd5b60065442610c829190611cfa565b600a60003373ffffffffffffffffffffffffffffffffffffffff1673ffffffffffffffffffffffffffffffffffffffff1681526020019081526020016000208190555084600960003373ffffffffffffffffffffffffffffffffffffffff1673ffffffffffffffffffffffffffffffffffffffff1681526020019081526020016000206000828254610d149190611cfa565b92505081905550600a60003373ffffffffffffffffffffffffffffffffffffffff1673ffffffffffffffffffffffffffffffffffffffff168152602001908152602001600020549250610d6733866114a1565b600193505050915091565b60065481565b6000600160008473ffffffffffffffffffffffffffffffffffffffff1673ffffffffffffffffffffffffffffffffffffffff16815260200190815260200160002060008373ffffffffffffffffffffffffffffffffffffffff1673ffffffffffffffffffffffffffffffffffffffff16815260200190815260200160002054905092915050565b600073ffffffffffffffffffffffffffffffffffffffff168273ffffffffffffffffffffffffffffffffffffffff161415610e6f576040517f08c379a0000000000000000000000000000000000000000000000000000000008152600401610e6690611c88565b60405180910390fd5b610e7b60008383611678565b8060026000828254610e8d9190611cfa565b92505081905550806000808473ffffffffffffffffffffffffffffffffffffffff1673ffffffffffffffffffffffffffffffffffffffff1681526020019081526020016000206000828254610ee29190611cfa565b925050819055508173ffffffffffffffffffffffffffffffffffffffff16600073ffffffffffffffffffffffffffffffffffffffff167fddf252ad1be2c89b69c2b068fc378daa952ba7f163c4a11628f55a4df523b3ef83604051610f479190611ca8565b60405180910390a3610f5b6000838361167d565b5050565b600033905090565b600073ffffffffffffffffffffffffffffffffffffffff168373ffffffffffffffffffffffffffffffffffffffff161415610fd7576040517f08c379a0000000000000000000000000000000000000000000000000000000008152600401610fce90611c08565b60405180910390fd5b600073ffffffffffffffffffffffffffffffffffffffff168273ffffffffffffffffffffffffffffffffffffffff161415611047576040517f08c379a000000000000000000000000000000000000000000000000000000000815260040161103e90611b48565b60405180910390fd5b80600160008573ffffffffffffffffffffffffffffffffffffffff1673ffffffffffffffffffffffffffffffffffffffff16815260200190815260200160002060008473ffffffffffffffffffffffffffffffffffffffff1673ffffffffffffffffffffffffffffffffffffffff168152602001908152602001600020819055508173ffffffffffffffffffffffffffffffffffffffff168373ffffffffffffffffffffffffffffffffffffffff167f8c5be1e5ebec7d5bd14f71427d1e84f3dd0314c0f7b2291e5b200ac8c7c3b925836040516111259190611ca8565b60405180910390a3505050565b600061113e8484610d78565b90507fffffffffffffffffffffffffffffffffffffffffffffffffffffffffffffffff81146111b857818110156111aa576040517f08c379a00000000000000000000000000000000000000000000000000000000081526004016111a190611b68565b60405180910390fd5b6111b78484848403610f67565b5b50505050565b600073ffffffffffffffffffffffffffffffffffffffff168373ffffffffffffffffffffffffffffffffffffffff16141561122e576040517f08c379a000000000000000000000000000000000000000000000000000000000815260040161122590611be8565b60405180910390fd5b600073ffffffffffffffffffffffffffffffffffffffff168273ffffffffffffffffffffffffffffffffffffffff16141561129e576040517f08c379a000000000000000000000000000000000000000000000000000000000815260040161129590611ac8565b60405180910390fd5b6112a9838383611678565b60008060008573ffffffffffffffffffffffffffffffffffffffff1673ffffffffffffffffffffffffffffffffffffffff1681526020019081526020016000205490508181101561132f576040517f08c379a000000000000000000000000000000000000000000000000000000000815260040161132690611b88565b60405180910390fd5b8181036000808673ffffffffffffffffffffffffffffffffffffffff1673ffffffffffffffffffffffffffffffffffffffff16815260200190815260200160002081905550816000808573ffffffffffffffffffffffffffffffffffffffff1673ffffffffffffffffffffffffffffffffffffffff16815260200190815260200160002060008282546113c29190611cfa565b925050819055508273ffffffffffffffffffffffffffffffffffffffff168473ffffffffffffffffffffffffffffffffffffffff167fddf252ad1be2c89b69c2b068fc378daa952ba7f163c4a11628f55a4df523b3ef846040516114269190611ca8565b60405180910390a361143984848461167d565b50505050565b60006064600854600960008573ffffffffffffffffffffffffffffffffffffffff1673ffffffffffffffffffffffffffffffffffffffff168152602001908152602001600020546114909190611d81565b61149a9190611d50565b9050919050565b600073ffffffffffffffffffffffffffffffffffffffff168273ffffffffffffffffffffffffffffffffffffffff161415611511576040517f08c379a000000000000000000000000000000000000000000000000000000000815260040161150890611bc8565b60405180910390fd5b61151d82600083611678565b60008060008473ffffffffffffffffffffffffffffffffffffffff1673ffffffffffffffffffffffffffffffffffffffff168152602001908152602001600020549050818110156115a3576040517f08c379a000000000000000000000000000000000000000000000000000000000815260040161159a90611ae8565b60405180910390fd5b8181036000808573ffffffffffffffffffffffffffffffffffffffff1673ffffffffffffffffffffffffffffffffffffffff1681526020019081526020016000208190555081600260008282546115fa9190611ddb565b92505081905550600073ffffffffffffffffffffffffffffffffffffffff168373ffffffffffffffffffffffffffffffffffffffff167fddf252ad1be2c89b69c2b068fc378daa952ba7f163c4a11628f55a4df523b3ef8460405161165f9190611ca8565b60405180910390a36116738360008461167d565b505050565b505050565b505050565b60008135905061169181612370565b92915050565b6000813590506116a681612387565b92915050565b6000602082840312156116be57600080fd5b60006116cc84828501611682565b91505092915050565b600080604083850312156116e857600080fd5b60006116f685828601611682565b925050602061170785828601611682565b9150509250929050565b60008060006060848603121561172657600080fd5b600061173486828701611682565b935050602061174586828701611682565b925050604061175686828701611697565b9150509250925092565b6000806040838503121561177357600080fd5b600061178185828601611682565b925050602061179285828601611697565b9150509250929050565b6000602082840312156117ae57600080fd5b60006117bc84828501611697565b91505092915050565b6117ce81611e0f565b82525050565b6117dd81611e21565b82525050565b60006117ee82611cde565b6117f88185611ce9565b9350611808818560208601611e64565b61181181611f56565b840191505092915050565b6000611829602383611ce9565b915061183482611f67565b604082019050919050565b600061184c602283611ce9565b915061185782611fb6565b604082019050919050565b600061186f601983611ce9565b915061187a82612005565b602082019050919050565b6000611892602283611ce9565b915061189d8261202e565b604082019050919050565b60006118b5602283611ce9565b91506118c08261207d565b604082019050919050565b60006118d8601d83611ce9565b91506118e3826120cc565b602082019050919050565b60006118fb602683611ce9565b9150611906826120f5565b604082019050919050565b600061191e603883611ce9565b915061192982612144565b604082019050919050565b6000611941602183611ce9565b915061194c82612193565b604082019050919050565b6000611964602583611ce9565b915061196f826121e2565b604082019050919050565b6000611987602483611ce9565b915061199282612231565b604082019050919050565b60006119aa601e83611ce9565b91506119b582612280565b602082019050919050565b60006119cd602583611ce9565b91506119d8826122a9565b604082019050919050565b60006119f0602183611ce9565b91506119fb826122f8565b604082019050919050565b6000611a13601f83611ce9565b9150611a1e82612347565b602082019050919050565b611a3281611e4d565b82525050565b611a4181611e57565b82525050565b6000602082019050611a5c60008301846117c5565b92915050565b6000602082019050611a7760008301846117d4565b92915050565b6000604082019050611a9260008301856117d4565b611a9f6020830184611a29565b9392505050565b60006020820190508181036000830152611ac081846117e3565b905092915050565b60006020820190508181036000830152611ae18161181c565b9050919050565b60006020820190508181036000830152611b018161183f565b9050919050565b60006020820190508181036000830152611b2181611862565b9050919050565b60006020820190508181036000830152611b4181611885565b9050919050565b60006020820190508181036000830152611b61816118a8565b9050919050565b60006020820190508181036000830152611b81816118cb565b9050919050565b60006020820190508181036000830152611ba1816118ee565b9050919050565b60006020820190508181036000830152611bc181611911565b9050919050565b60006020820190508181036000830152611be181611934565b9050919050565b60006020820190508181036000830152611c0181611957565b9050919050565b60006020820190508181036000830152611c218161197a565b9050919050565b60006020820190508181036000830152611c418161199d565b9050919050565b60006020820190508181036000830152611c61816119c0565b9050919050565b60006020820190508181036000830152611c81816119e3565b9050919050565b60006020820190508181036000830152611ca181611a06565b9050919050565b6000602082019050611cbd6000830184611a29565b92915050565b6000602082019050611cd86000830184611a38565b92915050565b600081519050919050565b600082825260208201905092915050565b6000611d0582611e4d565b9150611d1083611e4d565b9250827fffffffffffffffffffffffffffffffffffffffffffffffffffffffffffffffff03821115611d4557611d44611ec9565b5b828201905092915050565b6000611d5b82611e4d565b9150611d6683611e4d565b925082611d7657611d75611ef8565b5b828204905092915050565b6000611d8c82611e4d565b9150611d9783611e4d565b9250817fffffffffffffffffffffffffffffffffffffffffffffffffffffffffffffffff0483118215151615611dd057611dcf611ec9565b5b828202905092915050565b6000611de682611e4d565b9150611df183611e4d565b925082821015611e0457611e03611ec9565b5b828203905092915050565b6000611e1a82611e2d565b9050919050565b60008115159050919050565b600073ffffffffffffffffffffffffffffffffffffffff82169050919050565b6000819050919050565b600060ff82169050919050565b60005b83811015611e82578082015181840152602081019050611e67565b83811115611e91576000848401525b50505050565b60006002820490506001821680611eaf57607f821691505b60208210811415611ec357611ec2611f27565b5b50919050565b7f4e487b7100000000000000000000000000000000000000000000000000000000600052601160045260246000fd5b7f4e487b7100000000000000000000000000000000000000000000000000000000600052601260045260246000fd5b7f4e487b7100000000000000000000000000000000000000000000000000000000600052602260045260246000fd5b6000601f19601f8301169050919050565b7f45524332303a207472616e7366657220746f20746865207a65726f206164647260008201527f6573730000000000000000000000000000000000000000000000000000000000602082015250565b7f45524332303a206275726e20616d6f756e7420657863656564732062616c616e60008201527f6365000000000000000000000000000000000000000000000000000000000000602082015250565b7f596f75206861766520746f2073656e6420736f6d652045544800000000000000600082015250565b7f496e73756666696369656e74206163636f756e742f746f6b656e2042616c616e60008201527f6365000000000000000000000000000000000000000000000000000000000000602082015250565b7f45524332303a20617070726f766520746f20746865207a65726f20616464726560008201527f7373000000000000000000000000000000000000000000000000000000000000602082015250565b7f45524332303a20696e73756666696369656e7420616c6c6f77616e6365000000600082015250565b7f45524332303a207472616e7366657220616d6f756e742065786365656473206260008201527f616c616e63650000000000000000000000000000000000000000000000000000602082015250565b7f5265717569726564206461746520666f7220636c61696d696e6720612072657760008201527f61726420686173206e6f74206265656e20726561636865640000000000000000602082015250565b7f45524332303a206275726e2066726f6d20746865207a65726f2061646472657360008201527f7300000000000000000000000000000000000000000000000000000000000000602082015250565b7f45524332303a207472616e736665722066726f6d20746865207a65726f20616460008201527f6472657373000000000000000000000000000000000000000000000000000000602082015250565b7f45524332303a20617070726f76652066726f6d20746865207a65726f2061646460008201527f7265737300000000000000000000000000000000000000000000000000000000602082015250565b7f496e73756666696369656e742045544820746f2062757920746f6b656e730000600082015250565b7f45524332303a2064656372656173656420616c6c6f77616e63652062656c6f7760008201527f207a65726f000000000000000000000000000000000000000000000000000000602082015250565b7f4f6e6c79204f776e65722063616e2063616c6c20746869732066756e6374696f60008201527f6e00000000000000000000000000000000000000000000000000000000000000602082015250565b7f45524332303a206d696e7420746f20746865207a65726f206164647265737300600082015250565b61237981611e0f565b811461238457600080fd5b50565b61239081611e4d565b811461239b57600080fd5b5056fea264697066735822122075f8c99de154cf07c06659594eb0907dacb90c74a73753c9dd9935b54309882e64736f6c63430008040033",
  "immutableReferences": {},
  "source": "// SPDX-License-Identifier: MIT\r\npragma solidity ^0.8.4;\r\n\r\nimport \"@openzeppelin/contracts/token/ERC20/ERC20.sol\";\r\nimport \"@openzeppelin/contracts/utils/math/SafeMath.sol\";\r\n\r\ncontract StakingToken is ERC20 {\r\n    using SafeMath for uint256;\r\n\r\n    // address public owner;\r\n    address public owner;\r\n\r\n    uint256 public minStakePeriod = 60 * 60 * 24 * 7;\r\n    uint256 public tokenToWeiRate; // 1 / 10000000000\r\n\r\n    uint256 public rewardPct = 1;\r\n\r\n    event TokenPurchase(address indexed purchaser, uint256 amount);\r\n    event Staked(\r\n        address indexed _staker,\r\n        uint256 indexed _timestamp,\r\n        uint256 _amount\r\n    );\r\n    event Claimed(\r\n        address indexed _claimer,\r\n        uint256 indexed _timestamp,\r\n        uint256 _amount\r\n    );\r\n\r\n    mapping(address => uint256) private _staked;\r\n    mapping(address => uint256) private _rewardDueDate;\r\n\r\n    // MODIFIERS\r\n    modifier onlyOwner() {\r\n        require(msg.sender == owner, \"Only Owner can call this function\");\r\n        _;\r\n    }\r\n    modifier hasSufficientBalance(address _addr, uint256 _amount) {\r\n        require(\r\n            _amount <= (balanceOf(_addr) - _staked[_addr]),\r\n            \"Insufficient account/token Balance\"\r\n        );\r\n        _;\r\n    }\r\n\r\n    modifier rewardIsDue(address _addr) {\r\n        require(\r\n            block.timestamp >= _rewardDueDate[_addr],\r\n            \"Required date for claiming a reward has not been reached\"\r\n        );\r\n        _;\r\n    }\r\n\r\n    // STANDARD FUNCTIONS\r\n    constructor(uint256 _stakeTime, uint256 _tokenToWeiRate)\r\n        payable\r\n        ERC20(\"TakingToken\", \"STK\")\r\n    {\r\n        owner = msg.sender;\r\n        minStakePeriod = _stakeTime;\r\n        tokenToWeiRate = _tokenToWeiRate;\r\n        safeMint(owner, 1000 * (10**decimals()));\r\n    }\r\n\r\n    receive() external payable {\r\n        uint256 tokenAmount = _calcTokensBought(msg.value);\r\n        safeMint(msg.sender, tokenAmount);\r\n    }\r\n\r\n    // PUBLIC FUNCTIONS\r\n    function buyToken(uint256 tokensBought) public payable {\r\n        require(msg.value > 0, \"You have to send some ETH\");\r\n        payable(owner).transfer(msg.value);\r\n        tokensBought = _calcTokensBought(msg.value);\r\n        safeMint(msg.sender, tokensBought);\r\n        emit TokenPurchase(msg.sender, tokensBought);\r\n\r\n        // return (true, tokensBought);\r\n    }\r\n\r\n    function stakeToken(uint256 _amtToStake)\r\n        public\r\n        hasSufficientBalance(msg.sender, _amtToStake)\r\n        returns (bool, uint256 rewardTime)\r\n    {\r\n        _rewardDueDate[msg.sender] = block.timestamp + minStakePeriod;\r\n        _staked[msg.sender] += _amtToStake;\r\n        rewardTime = _rewardDueDate[msg.sender];\r\n        _burn(msg.sender, _amtToStake);\r\n        return (true, rewardTime);\r\n    }\r\n\r\n    function claimReward() public rewardIsDue(msg.sender) returns (bool) {\r\n        _rewardDueDate[msg.sender] = block.timestamp + minStakePeriod;\r\n        uint256 reward = _calcReward(msg.sender);\r\n        safeMint(msg.sender, reward);\r\n        return true;\r\n    }\r\n\r\n    function modifyTokenBuyPrice(uint256 _tokenToWeiRate)\r\n        public\r\n        onlyOwner\r\n        returns (bool)\r\n    {\r\n        tokenToWeiRate = _tokenToWeiRate;\r\n        return true;\r\n    }\r\n\r\n    // INTERNAL UTILITY FUNCTIONS\r\n    function safeMint(address _receiver, uint256 _amount)\r\n        internal\r\n        returns (bool)\r\n    {\r\n        _mint(_receiver, _amount);\r\n        return true;\r\n    }\r\n\r\n    function _calcTokensBought(uint256 _msgValue)\r\n        internal\r\n        view\r\n        returns (uint256 tokenAmount)\r\n    {\r\n        require(_msgValue >= tokenToWeiRate, \"Insufficient ETH to buy tokens\");\r\n        tokenAmount = _msgValue + tokenToWeiRate;\r\n        return tokenAmount;\r\n    }\r\n\r\n    function _calcReward(address _addr)\r\n        internal\r\n        view\r\n        returns (uint256 rewardAmount)\r\n    {\r\n        rewardAmount = (_staked[_addr] * rewardPct) / 100;\r\n        return rewardAmount;\r\n    }\r\n}\r\n",
  "sourcePath": "C:\\Users\\smartempire007\\Desktop\\Block_Game_Dapp\\staking-contract\\contracts\\StakingToken.sol",
  "compiler": {
    "name": "solc",
    "version": "0.8.4+commit.c7e474f2.Emscripten.clang"
  },
  "schemaVersion": "3.4.6",
  "updatedAt": "2022-04-10T20:38:21.431Z",
  "devdoc": {
    "kind": "dev",
    "methods": {
      "allowance(address,address)": {
        "details": "See {IERC20-allowance}."
      },
      "approve(address,uint256)": {
        "details": "See {IERC20-approve}. NOTE: If `amount` is the maximum `uint256`, the allowance is not updated on `transferFrom`. This is semantically equivalent to an infinite approval. Requirements: - `spender` cannot be the zero address."
      },
      "balanceOf(address)": {
        "details": "See {IERC20-balanceOf}."
      },
      "decimals()": {
        "details": "Returns the number of decimals used to get its user representation. For example, if `decimals` equals `2`, a balance of `505` tokens should be displayed to a user as `5.05` (`505 / 10 ** 2`). Tokens usually opt for a value of 18, imitating the relationship between Ether and Wei. This is the value {ERC20} uses, unless this function is overridden; NOTE: This information is only used for _display_ purposes: it in no way affects any of the arithmetic of the contract, including {IERC20-balanceOf} and {IERC20-transfer}."
      },
      "decreaseAllowance(address,uint256)": {
        "details": "Atomically decreases the allowance granted to `spender` by the caller. This is an alternative to {approve} that can be used as a mitigation for problems described in {IERC20-approve}. Emits an {Approval} event indicating the updated allowance. Requirements: - `spender` cannot be the zero address. - `spender` must have allowance for the caller of at least `subtractedValue`."
      },
      "increaseAllowance(address,uint256)": {
        "details": "Atomically increases the allowance granted to `spender` by the caller. This is an alternative to {approve} that can be used as a mitigation for problems described in {IERC20-approve}. Emits an {Approval} event indicating the updated allowance. Requirements: - `spender` cannot be the zero address."
      },
      "name()": {
        "details": "Returns the name of the token."
      },
      "symbol()": {
        "details": "Returns the symbol of the token, usually a shorter version of the name."
      },
      "totalSupply()": {
        "details": "See {IERC20-totalSupply}."
      },
      "transfer(address,uint256)": {
        "details": "See {IERC20-transfer}. Requirements: - `to` cannot be the zero address. - the caller must have a balance of at least `amount`."
      },
      "transferFrom(address,address,uint256)": {
        "details": "See {IERC20-transferFrom}. Emits an {Approval} event indicating the updated allowance. This is not required by the EIP. See the note at the beginning of {ERC20}. NOTE: Does not update the allowance if the current allowance is the maximum `uint256`. Requirements: - `from` and `to` cannot be the zero address. - `from` must have a balance of at least `amount`. - the caller must have allowance for ``from``'s tokens of at least `amount`."
      }
    },
    "version": 1
  },
  "userdoc": {
    "kind": "user",
    "methods": {},
    "version": 1
  }
}